:100000000C944B000C9410020C9468000C941E028B
:100010000C9468000C9468000C9468000C946800C0
:100020000C9468000C9468000C9468000C942D02E9
:100030000C9468000C9468000C9468000C946800A0
:100040000C9468000C9468000C9468000C94680090
:100050000C9468000C9468000C9468000C94680080
:100060000C9468000C94680096009C00A200A80004
:10007000AE00B400BA00C000D900DF00E500EB001C
:10008000F100F700FD0016011C01220128012E01DC
:1000900034013A01400111241FBECFEFD8E0DEBF8A
:1000A000CDBF11E0A0E0B1E0E8E8F5E002C00590C6
:1000B0000D92A231B107D9F721E0A2E1B1E001C070
:1000C0001D92A831B207E1F70E9462020C94C202AD
:1000D0000C940000009719F0019741F012C0E9E676
:1000E000F0E08081682B6083E89A0895E9E6F0E00B
:1000F0008081660F771F660F771F682B6083E99AF0
:10010000089584E091E00E9492020895883091055C
:10011000E0F5E8E6F0E02081216020838830910559
:10012000A0F5FC01EC5CFF4F0C948C02EBE6F0E0D8
:1001300020812160208329C0EBE6F0E0208122604D
:10014000208323C0EBE6F0E02081246020831DC0E3
:10015000EBE6F0E020812860208317C0EBE6F0E0BA
:1001600020812061208311C0EBE6F0E02081206235
:1001700020830BC0EBE6F0E020812064208305C0E3
:10018000EBE6F0E02081206820839C0128503109B3
:1001900027303105B8F5E8E6F0E0208122602083C1
:1001A000FC013897E730F10568F5E45CFF4F0C94EB
:1001B0008C02ECE6F0E020812160208323C0ECE695
:1001C000F0E02081226020831DC0ECE6F0E0208179
:1001D0002460208317C0ECE6F0E0208128602083B3
:1001E00011C0ECE6F0E02081206120830BC0ECE63A
:1001F000F0E020812062208305C0ECE6F0E0208161
:10020000206420839C012051310928303105E8F514
:10021000E8E6F0E0208124602083FC017097E8305C
:10022000F10598F5ED5BFF4F0C948C02EDE6F0E0E4
:100230008081816080830895EDE6F0E080818260B6
:1002400080830895EDE6F0E08081846080830895E6
:10025000EDE6F0E08081886080830895EDE6F0E0CF
:100260008081806180830895EDE6F0E08081806286
:1002700080830895EDE6F0E08081806480830895B6
:10028000EDE6F0E0808180688083089581309105FB
:1002900061F08230910591F0892BC1F485B590E031
:1002A000887F682B792B65BD0895E1E8F0E08081B7
:1002B00090E0887F682B792B60830895E1EBF0E074
:1002C000808190E0887F682B792B6083089581304E
:1002D0009105A1F18230910509F46DC0892B09F0D7
:1002E0009EC085B5886085BD613419F06234A9F07F
:1002F000089584B50024369527950794369527955B
:100300000794322F202D282B24BDA998EEE6F0E08B
:1003100080818260808347BD089585B5229532959E
:10032000307F3227207F3227282B25BDAA98EEE682
:10033000F0E080818460808348BD0895E1E8F0E0CA
:10034000808188608083613419F06234E1F008951F
:10035000E0E8F0E0808100243695279507943695F3
:1003600027950794322F202D282B2083B198EFE674
:10037000F0E0808182608083842F952F90938900A4
:10038000809388000895E1E8F0E08081229532951D
:10039000307F3227207F3227282B2083B298EFE648
:1003A000F0E0808184608083842F952F90938B0070
:1003B00080938A000895E1EBF0E08081886080837B
:1003C000613419F06234C1F00895E0EBF0E080810F
:1003D0000024369527950794369527950794322F54
:1003E000202D282B2083B998E0E7F0E080818260FF
:1003F00080834093B3000895E1EBF0E08081229583
:100400003295307F3227207F3227282B2083BA98DD
:10041000E0E7F0E08081846080834093B400089539
:100420001F920F920FB60F92112410920301109297
:1004300002010F900FBE0F901F9018951F920F9200
:100440000FB60F92112478941092010110920001BE
:100450000F900FBE0F901F9018951F920F920FB61E
:100460000F9211248F939F93809102019091030129
:100470004E976CF495B182E0892785B9809102018D
:100480009091030101969093030180930201809162
:1004900000019091010144976CF495B184E08927A3
:1004A00085B980910001909101010196909301011D
:1004B00080930001B1989F918F910F900FBE0F9084
:1004C0001F90189586E284B983E090E00E94860030
:1004D00063E070E080E090E00E946A0065E070E018
:1004E00081E090E00E94460120E030E048E05DE3DA
:1004F00061E481E090E00E946701789490E285B128
:10050000892785B92FEF39E688E1215030408040B6
:10051000E1F700C00000F3CFEE0FFF1F0590F4914C
:10052000E02D09940F931F93CF93DF93E091140173
:10053000F0911501238121FF1BC08C01D0E0C0E0A8
:10054000F80181918F016091140170911501DB0117
:100550001896ED91FC911997882331F00995892B14
:1005600079F3DFEFCFEFECCF8AE00995892B19F013
:100570008FEF9FEF02C08D2F9C2FDF91CF911F91A6
:080580000F910895F894FFCFDC
:10058800320032003A4552522045495F696E69741B
:02059800000061
:00000001FF
