:100000000C9434000C9451000C9451000C94510049
:100010000C9451000C9451000C9451000C9451001C
:100020000C9451000C9451000C9451000C94ED016F
:100030000C9451000C9451000C9451000C945100FC
:100040000C9451000C9451000C94A9010C94510093
:100050000C9451000C9451000C9451000C945100DC
:100060000C9451000C94510011241FBECFEFD8E026
:10007000DEBFCDBF11E0A0E0B1E0ECE3FCE002C0E8
:1000800005900D92A234B107D9F721E0A2E4B1E0C6
:1000900001C01D92A735B207E1F70E9480020C94BF
:1000A0001C060C9400008130910561F082309105AE
:1000B00091F0892BC1F485B590E0887F682B792B6E
:1000C00065BD0895E1E8F0E0808190E0887F682BCD
:1000D000792B60830895E1EBF0E0808190E0887FE8
:1000E000682B792B6083089581309105A1F18230CE
:1000F000910509F46DC0892B09F09EC085B5886013
:1001000085BD613419F06234A9F0089584B50024E6
:10011000369527950794369527950794322F202DED
:10012000282B24BDA998EEE6F0E0808182608083D0
:1001300047BD089585B522953295307F3227207FBF
:100140003227282B25BDAA98EEE6F0E08081846056
:10015000808348BD0895E1E8F0E080818860808375
:10016000613419F06234E1F00895E0E8F0E0808154
:100170000024369527950794369527950794322FB6
:10018000202D282B2083B198EFE6F0E0808182605B
:100190008083842F952F9093890080938800089501
:1001A000E1E8F0E0808122953295307F3227207F90
:1001B0003227282B2083B298EFE6F0E0808184601C
:1001C0008083842F952F90938B0080938A000895CD
:1001D000E1EBF0E0808188608083613419F0623463
:1001E000C1F00895E0EBF0E080810024369527957A
:1001F0000794369527950794322F202D282B20839E
:10020000B998E0E7F0E08081826080834093B3009A
:100210000895E1EBF0E0808122953295307F32271E
:10022000207F3227282B2083BA98E0E7F0E08081F6
:10023000846080834093B40008959C0140E050E0C6
:1002400060E472E48FE090E00E94C902215031091D
:100250003093C5002093C4001092C00088E98093B9
:10026000C1008EE08093C2000895E0ECF0E0908140
:1002700095FFFDCF8093C60080E090E00895E0EC0C
:10028000F0E080818823ECF78091C60090E008952B
:1002900080914701803519F0843519F155C080915E
:1002A00048018823C9F088E491E00E94E802909315
:1002B00045018093440180914401909145019F93B1
:1002C0008F9380E191E09F938F930E940E030F9094
:1002D0000F900F900F90089586E191E00E94240303
:1002E000089580914801882351F188E491E00E94AB
:1002F000E802909301018093000140910001509128
:1003000001012AE638E1429FC001439F900D529FB0
:10031000900D1124909389008093880080910001B2
:10032000909101019F938F938BE191E09F938F9325
:100330000E940E030F900F900F900F90089586E18A
:1003400091E00E942403089586E191E00E94240335
:1003500008951F920F920FB60F9211242F933F937F
:100360004F935F936F937F938F939F93AF93BF93BD
:10037000EF93FF9382E091E00E943F019C013327BD
:100380002D30310531F02A33310561F410924601E8
:1003900013C0E0914601F0E0E95BFE4F10820E943D
:1003A00048010AC0E091460191E09E0F90934601FA
:1003B000F0E0E95BFE4F8083FF91EF91BF91AF9139
:1003C0009F918F917F916F915F914F913F912F916D
:1003D0000F900FBE0F901F9018951F920F920FB69F
:1003E0000F9211242F933F934F935F936F937F93BB
:1003F0008F939F93AF93BF93EF93FF93209142010D
:1004000030914301809144019091450128173907AB
:1004100009F459C020914401309145018091420175
:1004200090914301281739075CF42B988091420181
:10043000909143010197909343018093420125C01D
:1004400020914401309145018091420190914301F6
:10045000821793075CF42B9A80914201909143019B
:10046000019690934301809342010FC02091440173
:10047000309145018091420190914301281739073D
:1004800021F485E08A95F1F7000095B180E2892793
:1004900085B9B19820914401309145018091420184
:1004A000909143013F932F939F938F9382E291E02A
:1004B0009F938F930E940E030F900F900F900F90B9
:1004C0000F900F900CC02091440130914501809114
:1004D0004201909143012817390709F42D98FF91A3
:1004E000EF91BF91AF919F918F917F916F915F91AC
:1004F0004F913F912F910F900FBE0F901F90189525
:1005000080E284B980E895E20E941D01E1E5F1E016
:1005100082E091E0918380839383828310924601ED
:1005200064E070E081E090E00E945300409100019F
:100530005091010120E030E061E481E090E00E9410
:100540007400789485E08A95F1F70000FBCFA1E272
:100550001A2EAA1BBB1BFD010DC0AA1FBB1FEE1F3D
:10056000FF1FA217B307E407F50720F0A21BB30B88
:10057000E40BF50B661F771F881F991F1A9469F704
:1005800060957095809590959B01AC01BD01CF0160
:100590000895052E97FB1EF400940E94E00257FD7B
:1005A00007D00E94A70207FC03D04EF40C94E0028F
:1005B00050954095309521953F4F4F4F5F4F08958F
:1005C00090958095709561957F4F8F4F9F4F0895BF
:1005D000FC0188279927E89421912032E9F32930FA
:1005E00010F02E30C8F32B3241F02D3239F46894DC
:1005F00004C00E940603820F911D219120532A30CE
:10060000C0F31EF4909581959F4F08957AE0979FCF
:10061000902D879F802D910D11240895A0E0B0E0CA
:10062000E4E1F3E00C94F505AE014B5F5F4FFA0196
:1006300061917191AF0180915301909154010E9499
:100640005403E2E00C9411060F931F93CF93DF93B2
:10065000E0915301F0915401238121FF1BC08C01D3
:10066000D0E0C0E0F80181918F0160915301709159
:100670005401DB011896ED91FC911997882331F014
:100680000995892B79F3DFEFCFEFECCF8AE009955D
:10069000892B19F08FEF9FEF02C08D2F9C2FDF91D8
:1006A000CF911F910F910895ABE0B0E0EAE5F3E040
:1006B0000C94E5056C017B018A01FC01178216820E
:1006C000838181FFCCC1CE0101963C01F60193816B
:1006D000F70193FD859193FF81917F01882309F4B0
:1006E000BAC1853239F493FD859193FF81917F01E1
:1006F000853229F4B60190E00E944B05E7CF912C9A
:10070000212C312CFFE1F315D8F08B3279F038F43D
:10071000803279F08332A1F4232D20611DC08D3207
:1007200061F0803369F4232D216016C0832D82602F
:10073000382EE32DE4603E2E2AC0F32DF8601DC054
:1007400037FC2DC020ED280F2A3040F08E32B9F44E
:1007500036FC81C1232D2064322E19C036FE06C01E
:100760008AE0989E200D1124922E11C0EAE02E9E60
:10077000200D1124222EF32DF0623F2E08C08C365E
:1007800021F4832D8068382E02C0883641F4F701A9
:1007900093FD859193FF81917F018111B3CF982FB4
:1007A0009F7D9554933028F40C5F1F4F9FE39983EE
:1007B0000DC0833631F0833771F0833509F059C0AD
:1007C00021C0F801808189830E5F1F4F88248394A4
:1007D000912C530113C02801F2E04F0E511CF80177
:1007E000A080B18036FE03C0692D70E002C06FEFBB
:1007F0007FEFC5010E9440054C018201F32DFF7778
:100800003F2E16C0280122E0420E511CF801A080A4
:10081000B18036FE03C0692D70E002C06FEF7FEF3C
:10082000C5010E9435054C01F32DF0683F2E820171
:1008300033FC1BC0822D90E088169906B0F4B601F7
:1008400080E290E00E944B052A94F4CFF50137FC3A
:10085000859137FE81915F01B60190E00E944B05C2
:1008600021102A9421E0821A91088114910471F7D1
:10087000E8C0843611F0893641F5F80137FE07C02B
:1008800060817181828193810C5F1F4F08C06081FC
:100890007181072E000C880B990B0E5F1F4FF32DF3
:1008A000FF763F2E97FF09C09095809570956195D2
:1008B0007F4F8F4F9F4FF0683F2E2AE030E0A3011B
:1008C0000E948705882E861845C0853731F4232D70
:1008D0002F7EB22E2AE030E025C0932D997FB92ECD
:1008E0008F36C1F018F4883579F0B5C0803719F02B
:1008F000883721F0B0C0E92FE061BE2EB4FE0DC0F4
:10090000FB2DF460BF2E09C034FE0AC0292F2660DB
:10091000B22E06C028E030E005C020E130E002C081
:1009200020E132E0F801B7FE07C060817181828169
:1009300093810C5F1F4F06C06081718180E090E061
:100940000E5F1F4FA3010E948705882E8618FB2D7E
:10095000FF773F2E36FE0DC0232D2E7FA22E891449
:1009600058F434FE0BC032FC09C0832D8E7EA82EB5
:1009700005C0B82CA32C03C0B82C01C0B92CA4FE10
:100980000FC0FE01E80DF11D8081803321F49A2D06
:10099000997EA92E09C0A2FE06C0B394B39404C0E8
:1009A0008A2D867809F0B394A3FC11C0A0FE06C07E
:1009B000B21488F4280C922C9B180EC0B21460F468
:1009C000B60180E290E00E944B05B394F7CFB214D9
:1009D00018F42B1802C0982C212CA4FE10C0B601CC
:1009E00080E390E00E944B05A2FE17C0A1FC03C06B
:1009F00088E790E002C088E590E0B6010CC08A2D3F
:100A0000867859F0A1FE02C08BE201C080E2A7FC0B
:100A10008DE2B60190E00E944B05891438F4B601CE
:100A200080E390E00E944B059A94F7CF8A94F301FB
:100A3000E80DF11D8081B60190E00E944B05811008
:100A4000F5CF222009F442CEB60180E290E00E9468
:100A50004B052A94F6CFF6018681978102C08FEF6D
:100A60009FEF2B96E2E10C940106FC01059061508A
:100A700070400110D8F7809590958E0F9F1F0895B4
:100A8000FC016150704001900110D8F7809590955D
:100A90008E0F9F1F08950F931F93CF93DF93FB013A
:100AA000238121FD03C08FEF9FEF2CC022FF16C0D2
:100AB00046815781248135814217530744F4A08130
:100AC000B1819D012F5F3F4F318320838C9326811D
:100AD00037812F5F3F4F3783268314C08B01EC0192
:100AE000FB010084F185E02D0995892BE1F6D80101
:100AF00016968D919C911797019617969C938E93BD
:100B00001697CE01DF91CF911F910F910895FA01B1
:100B1000AA27283051F1203181F1E8946F936E7F3C
:100B20006E5F7F4F8F4F9F4FAF4FB1E03ED0B4E02D
:100B30003CD0670F781F891F9A1FA11D680F791F6E
:100B40008A1F911DA11D6A0F711D811D911DA11D7F
:100B500020D009F468943F912AE0269F112430198F
:100B6000305D3193DEF6CF010895462F4770405D2A
:100B70004193B3E00FD0C9F7F6CF462F4F70405DD9
:100B80004A3318F0495D31FD4052419302D0A9F734
:100B9000EACFB4E0A6959795879577956795BA952E
:100BA000C9F700976105710508959B01AC010A2EF4
:100BB00006945795479537952795BA95C9F7620FCB
:100BC000731F841F951FA01D08952F923F924F926F
:100BD0005F926F927F928F929F92AF92BF92CF92CD
:100BE000DF92EF92FF920F931F93CF93DF93CDB7D6
:100BF000DEB7CA1BDB0B0FB6F894DEBF0FBECDBF4E
:100C000009942A88398848885F846E847D848C841E
:100C10009B84AA84B984C884DF80EE80FD800C8127
:100C20001B81AA81B981CE0FD11D0FB6F894DEBF0A
:0C0C30000FBECDBFED010895F894FFCF7A
:100C3C00E803000000030000000035013F01000044
:100C4C00503A202564003A45525200543A2025640B
:100C5C000A00506F732E2061637475616C3D2564BE
:100C6C0020506F732E20646573656164613D25644B
:020C7C000A006C
:00000001FF
